:040000000AEF00F013
:10000800D9CF03F0DACF04F0F7ED14F09AEF15F03A
:10080000809A90B68EB78F80D2D3D4D8D7988E8F57
:10081000909292E299E3EAEB98999A9D9C9D9E9E14
:10082000B5D6E0E9A5A5A6A6A8A9AAABAC21AEAF0E
:10083000B0B1B2B3B4B5B6B7B8B9BABBBCBDBEBF40
:10084000C0C1C2C3C4C5C7C7C8C9CACBCCCDCECF2F
:10085000D0D1D2D3D4D5D6D7D8D9DADBDCDDDEDF20
:10086000E0E1E2E3E5E5E6E7E8E9EAEBDE59EEEFB1
:10087000F0F1F2F3F4F5F6F7F8F9FAFBFCFDFEFF00
:10088000000057C070F058C071F000017151701134
:10089000D8B4120020EE01F07051D9267151DA223D
:1008A000DF50426E42A0120020EE1AF07051D9269D
:1008B0007151DA22DECF42F0DECF43F0DECF44F0DA
:1008C000DECF45F03E50425C3F50435840504458C4
:1008D000415045580EE220EE1AF07051D926715160
:1008E000DA22DECF3EF0DECF3FF0DECF40F0DECFCB
:1008F00041F020EE16F07051D9267151DA22DECF88
:1009000064F0DECF65F0DECF66F0DECF67F020EE7C
:1009100016F07051D9267151DA22DE6ADE6ADE6A7B
:10092000DD6ADD52DD5241503E103F104010D8B418
:10093000120020EE02F07051D9267151DA22DF50F8
:10094000426E42C043F0446A456A466A090ED89036
:100950004336443645364636E82EF9D743C068F06C
:1009600044C069F045C06AF046C06BF0675164113D
:100970006511661101E192D0FF0E3E24056EFF0E57
:100980003F20066EFF0E4020076EFF0E4120086ECE
:1009900068C009F069C00AF06AC00BF06BC00CF0C7
:1009A00034EC15F005C042F006C043F007C044F037
:1009B00008C045F0FF0E6425056EFF0E6521066E2A
:1009C000FF0E6621076EFF0E6721086E68C009F0F2
:1009D00069C00AF06AC00BF06BC00CF034EC15F083
:1009E0000550425C0650435807504458085045583B
:1009F00055E3FF0E6825426EFF0E6921436EFF0E20
:100A00006A21446EFF0E6B21456E421E431E441E3A
:100A1000451EFF0E6425466EFF0E6521476EFF0ED4
:100A20006621486EFF0E6721496E425046144A6E99
:100A3000435047144B6E445048144C6E4550491473
:100A40004D6E20EE16F07051D9267151DA224AC04F
:100A5000DEFF4BC0DEFF4CC0DEFF4DC0DDFFD90620
:100A6000D90620EE16F07051D9267151DA22DE50E7
:100A70003E5EDE503F5ADE50405ADD50415A20EE75
:100A800022F07051D9267151DA22DECF6CF0DECF20
:100A90006DF0DECF6EF0DECF6FF076D020EE1EF080
:100AA0007051D9267151DA22DECF6CF0DECF6DF0B5
:100AB000DECF6EF0DECF6FF020EE22F07051D9263F
:100AC0007151DA226CC0DEFF6DC0DEFF6EC0DEFF4A
:100AD0006FC0DEFF59D06CC022F06DC023F06EC035
:100AE00024F06FC025F02FEC08F022C06CF023C07A
:100AF0006DF024C06EF025C06FF0020E00016C5D39
:100B0000000E6D59000E6E59000E6F5901E2BDD0F6
:100B100020EE06F07051D9267151DA22DECF42F074
:100B2000DECF43F0DECF44F0DECF45F042506C5DC7
:100B300043506D5944506E5945506F5901E3A5D04B
:100B400020EE22F07051D9267151DA226CC0DEFFFE
:100B50006DC0DEFF6EC0DEFF6FC0DEFF20EE16F060
:100B60007051D9267151DA226851DE266951DE2290
:100B70006A51DE226B51DD2268513E5E69513F5A57
:100B80006A51405A6B51415A3E50685D3F50695915
:100B900040506A5941506B599EE320EE16F0705157
:100BA000D9267151DA223E50DE263F50DE224050D7
:100BB000DE224150DD226CC011F06DC012F06EC01B
:100BC00013F06FC014F09DEC14F011C060F012C06F
:100BD00061F013C062F014C063F0635160116111E1
:100BE000621153E020EE02F07051D9267151DA22E1
:100BF000DF50426EFF0E4224436E446AFF0E4422D1
:100C0000456A44BE45064550466E20EE16F07051CA
:100C1000D9267151DA22DECF47F0DECF48F0DECFA1
:100C200049F0DECF4AF00A0E05D0D8904A32493258
:100C300048324732E82EF9D7435047144B6E4450A0
:100C400048144C6E455049144D6E46504A144E6E31
:100C500060514B244F6E61514C20506E62514D20BB
:100C6000516E63514E20526E20EE26F07051D926FF
:100C70007151DA224FC0DEFF50C0DEFF51C0DEFFEF
:100C800052C0DDFFD906D906120020EE01F07051E6
:100C9000D9267151DA22000EDF6E000C576A586AAD
:100CA0002850271001E1000C5BEC10F0296E29B0F0
:100CB000020C00018C6B8D6B8E6B8F6B226A236A2A
:100CC000246A256A600ED8EC13F00001946F940535
:100CD0002DE1000E136E600E126E146A156A166A0C
:100CE000176A010E196EBE0E186E1B6A100E1A6E70
:100CF00073EC13F0000902E0030E16D000016451FA
:100D000015E068C08CF069C08DF06AC08EF06BC0D1
:100D10008FF08CC022F08DC023F08EC024F08FC0E5
:100D200025F0600ED8EC13F00001946F9451030A83
:100D300001E1010C945101E0070C000E136E600EEE
:100D4000126E8CC014F08DC015F08EC016F08FC0DE
:100D500017F0196A0D0E186E1B6A240E1A6E73ECCA
:100D600013F00009E6E1000169C090F06AC091F05B
:100D7000926B936B935190119111921108E177C08E
:100D800090F078C091F079C092F07AC093F06351FE
:100D9000116E126A136A146A900E82EC16F0615199
:100DA0008C25296E62518D212A6E000E8E212B6EAC
:100DB000000E8F212C6E20EE0AF02750D9262850E5
:100DC000DA2229C0DEFF2AC0DEFF2BC0DEFF2CC0E6
:100DD000DDFFD906D90620EE02F02750D92628508B
:100DE000DA2260C0DFFF20EE04F02750D926285019
:100DF000DA2264C0DEFF65C0DDFF66C084F067C034
:100E000085F0866B876B875184118511861108E107
:100E100073C084F074C085F075C086F076C087F02A
:100E200020EE04F02750D9262850DA22DECF29F010
:100E3000DDCF2AF0040E2B6ED8902A3229322B2EC9
:100E4000FBD729502C6E2A502D6E2E6A2F6A6151C5
:100E5000306E6251316E326A336A301E311E321E7C
:100E6000331E302A000E3122322233229051305C60
:100E7000346E91513158356E92513258366E9351CD
:100E80003358376E2C50345C386E2D503558396ECF
:100E90002E5036583A6E2F5037583B6E84513824B6
:100EA000056E85513920066E86513A20076E8751AE
:100EB0003B20086E20EE02F02750D9262850DA2277
:100EC000DF50096E0A6A0B6A0C6A34EC15F0020EE8
:100ED0000524886F000E0620896F000E07208A6F98
:100EE000000E08208B6F20EE06F02750D9262850E0
:100EF000DA2288C0DEFF89C0DEFF8AC0DEFF8BC039
:100F0000DEFF020E946FF70E885D0F0E8959000EFA
:100F10008A59000E8B5902E2010E946FF70E885D1C
:100F2000FF0E8959000E8A59000E8B5902E3030EF9
:100F3000946F27C0D9FF28C0DAFF94C0DFFF945117
:100F4000030A0FE120EE0EF02750D9262850DA22AE
:100F50007FC0DEFF80C0DEFF81C0DEFF82C0DEFF1B
:100F60002AD020EE0AF02750D9262850DA22DECFE8
:100F700029F0DECF2AF0DECF2BF0DECF2CF090511F
:100F800029242D6E91512A202E6E92512B202F6EE6
:100F900093512C20306E20EE0EF02750D926285089
:100FA000DA222DC0DEFF2EC0DEFF2FC0DEFF30C0F4
:100FB000DDFFD906D90620EE0AF02750D9262850A1
:100FC000DA22DECF29F0DECF2AF0DECF2BF0DECF23
:100FD0002CF020EE04F02750D9262850DA22DECF5C
:100FE0002DF0DDCF2EF0040E2F6ED8902E322D3244
:100FF0002F2EFBD72D502924306E2E502A20316EF3
:10100000000E2B20326E000E2C20336E90513024B7
:10101000346E91513120356E92513220366E93519B
:101020003320376E20EE12F02750D9262850DA22CE
:1010300034C0DEFF35C0DEFF36C0DEFF37C0DDFF67
:10104000D906D90620EE01F02750D9262850DA22F9
:10105000000EDF6E27C057F028C058F0000C57C0B4
:101060003CF058C03DF0020E225C000E2358000EEA
:101070002458000E255818E320EE06F03C50D926DF
:101080003D50DA22DECF26F0DECF27F0DECF28F08B
:10109000DECF29F02650225C2750235828502458B0
:1010A0002950255801E279D1010E226E000E236EDF
:1010B000246E256E000C22C03AF023C03BF0D8907D
:1010C0003B30276E3A30266E26503A2627503B2278
:1010D0003A50386E010E3B14396E090E266ED890C8
:1010E0003B323A32262EFBD73828D8B439042FE0C9
:1010F000320E126E000E136E0F0E136E5F0E126420
:10110000136A20EE0AF03C50D9263D50DA22DECF99
:1011100026F0DECF27F0DECF28F0DECF29F03A50E0
:101120002624146E3B502720156E000E2820166EC4
:10113000000E2920176E38C018F039C019F01B6A4C
:10114000020E1A6E73EC13F00009AEE162D0320E9B
:10115000126E000E136E0F0E136E5F0E1264136A82
:1011600020EE0AF03C50D9263D50DA22DECF26F0A0
:10117000DECF27F0DECF28F0DECF29F03A5026244C
:10118000146E3B502720156E000E2820166E000EA0
:101190002920176E010E196E18681B6A1A6E73ECFF
:1011A00013F0000981E1330E126E000E136E0F0E64
:1011B000136E5F0E1264136A20EE0AF03C50D926BB
:1011C0003D50DA22DECF26F0DECF27F0DECF28F04A
:1011D000DECF29F03A5026242A6E3B5027202B6E72
:1011E000000E28202C6E000E29202D6E2A28146E49
:1011F000000E2B20156E000E2C20166E000E2D20DA
:10120000176E196A186A1B6A010E1A6E73EC13F0D6
:101210009BD732C036F033C037F022B006D03650FC
:10122000306E0F0E3714316E0FD036C026F037C037
:1012300027F0040E286ED89027322632282EFBD7AE
:1012400026C030F027C031F030C022F031C023F08A
:10125000246A256A1200320E126E000E136E0F0EF3
:10126000136E5F0E1264136A20EE0AF03C50D9260A
:101270003D50DA22DECF26F0DECF27F0DECF28F099
:10128000DECF29F022C02AF023C02BF024C02CF09E
:1012900025C02DF02BC02AF02CC02BF02DC02CF037
:1012A0002D6A26502A24146E27502B20156E2850A4
:1012B0002C20166E29502D20176E22502E6E2F6A6C
:1012C000D8902E34186E2F34196E1B6A020E1A6EC7
:1012D00073EC13F0000901E0E7D632C022F033C00E
:1012E00023F0246A256A1200320E126E000E136E6D
:1012F0000F0E136E5F0E1264136A20EE0AF03C505C
:10130000D9263D50DA22DECF26F0DECF27F0DECF21
:1013100028F0DECF29F022C02AF023C02BF024C011
:101320002CF025C02DF0080E05D0D8902D322C328F
:101330002B322A32E82EF9D726502A24146E275051
:101340002B20156E28502C20166E29502D20176E3C
:101350007F0E22142E6E2F6AD8902E362F36D890FC
:101360002E362F362EC018F02FC019F01B6A040E2F
:101370001A6E73EC13F0000901E096D620EE32F0FD
:10138000FF0EDE14226EFF0EDE14236EFF0EDE143F
:10139000246E0F0EDE14256E12003CC0D9FF3DC036
:1013A000DAFFDF50010A01E186D6030A01E153D7D3
:1013B000010A9AE079D63EC061F03FC062F057C0A2
:1013C00074F058C075F04250D96EDA6ADE6ADD6A90
:1013D00000017551741101E1060C20EE01F0745109
:1013E000D9267551DA22DF50436E43A0050C20EE5A
:1013F00016F07451D9267551DA22DECF43F0DECFD4
:1014000044F0DECF45F0DECF46F020EE1AF0745106
:10141000D9267551DA22DECF47F0DECF48F0DECF95
:1014200049F0DECF4AF04350475C696F445048585A
:101430006A6F455049586B6F46504A586C6F405020
:10144000436E4150446E456A466A4350695D44505C
:101450006A5945506B5946506C5901E33FD169C0F8
:1014600040F06AC041F03AD120EE16F07451D9260E
:101470007551DA22FF0EDE14436E010EDE14446E47
:10148000000EDE14456E000EDE14466E465043100C
:101490004410451001E0B1D020EE16F07451D92669
:1014A0007551DA22DECF43F0DECF44F0DECF45F0D7
:1014B000DECF46F00A0E05D0D8904632453244328F
:1014C0004332E82EF9D720EE02F07451D926755137
:1014D000DA22DF50476E47044314716F716753D0AF
:1014E00020EE16F07451D9267551DA22DECF43F082
:1014F000DECF44F0DECF45F0DECF46F0465043105D
:101500004410451019E020EE22F07451D92675518F
:10151000DA22DECF22F0DECF23F0DECF24F0DECFE2
:1015200025F02FEC08F022C06DF023C06EF024C02F
:101530006FF025C070F00ED020EE1EF07451D92649
:101540007551DA22DECF6DF0DECF6EF0DECF6FF0B8
:10155000DECF70F0020E00016D5D000E6E59000EC0
:101560006F59000E705901E2BED020EE22F0745186
:10157000D9267551DA226DC0DEFF6EC0DEFF6FC066
:10158000DEFF70C0DEFF20EE22F07451D9267551C7
:10159000DA22DECF11F0DECF12F0DECF13F0DECF95
:1015A00014F09DEC14F011C065F012C066F013C089
:1015B00067F014C068F0685165116611671101E1A8
:1015C00092D071516525436E000E6621446E000E67
:1015D0006721456E000E6821466E20EE26F074519C
:1015E000D9267551DA2243C0DEFF44C0DEFF45C074
:1015F000DEFF46C0DDFFD906D90620EE16F0745195
:10160000D9267551DA22DECF43F0DDCF44F04350C6
:10161000456E010E4414466E45500008726F4650E8
:10162000D8A0E82A0208736F7251405C7351415888
:1016300004E240C072F041C073F03F503E1005E03C
:1016400061C063F062C064F002D0636B646B63C01E
:1016500012F064C013F020EE26F07451D9267551B3
:10166000DA22DECF14F0DECF15F0DECF16F0DECFBB
:1016700017F020EE16F07451D9267551DA22DECF1C
:1016800043F0DDCF44F04350186E010E4414196E40
:1016900072C01AF073C01BF073EC13F00001606F9E
:1016A000605121E120EE16F07451D9267551DA22ED
:1016B0007251DE267351DE22000EDE22DD227251CF
:1016C0006127000E62237251405E7351415A4250AD
:1016D000D96EDA6A7251DE267351DD224150401014
:1016E00001E0C2D6000C20EE01F07451D9267551EC
:1016F000DA22000EDF6E010C0201020E3F6E000EB8
:101700003E6E416A0C0E406E5A0E426EDBEC09F0E2
:10171000000907E0010E536E000E546E556E566EB2
:10172000000C5A500C0A5B100DE102010B51450AE6
:10173000570ED8B40819410ED8B40919560ED8B4AA
:101740000A1905E0536A546A556A566A1200020182
:10175000020E3F6E000E3E6E416A080E406E5A0E3B
:10176000426EDBEC09F05A50080A5B10EBE100C254
:101770007AF001C27BF002C27CF003C27DF004C2A9
:1017800082F005C283F006C284F007C285F07DD0E6
:10179000650E825D000E8359000E8459000E855936
:1017A000D1E2100E825D000E8359000E8459000EA6
:1017B0008559C8E30201020E3F6E000E3E6E82C0E4
:1017C00040F083C041F05A0E426EDBEC09F05A50F3
:1017D000766F5B50776F786B796B8551791908E17B
:1017E0008451781905E18351771902E18251761904
:1017F000A9E102010005A6E1000102C2CAF0CB6B1B
:10180000CA05CB1104E0CA51020ACB119BE10001C9
:101810000EC2C8F0C96BC851080AC91104E0C8510A
:10182000100AC9118FE104C27EF005C27FF006C222
:1018300080F007C281F07EC012F07FC013F080C03C
:1018400014F081C015F0C4EC15F081D782C053F0BC
:1018500083C054F084C055F085C056F01200825108
:10186000010116253E6E00018351010117213F6ED3
:101870000001845101011821406E000185510101D0
:101880001921416E41EC04F062D77AC076F07BC03A
:1018900077F07CC078F07DC079F07951200A27E09C
:1018A000740A29E0350A2BE0150A2DE04BD7775151
:1018B0006D0A01E047D77651660A01E169D742D740
:1018C0007751490A01E03ED776514C0A0ED0775144
:1018D000610A01E037D77651640AB8E033D777510F
:1018E000610A01E02FD77651660AB9E02BD778510B
:1018F000740ADDE027D77851530AE2E023D7785104
:10190000740AE5E01FD77851630AE9E01BD7E8CFF6
:10191000BBF0BB512BEC12F00009D8A412007CECF8
:101920000BF053C0BCF054C0BDF055C0BEF056C063
:10193000BFF0000E0001BC5D010EBD59000EBE5986
:10194000000EBF59D8A01200F90E9416CA51020A0F
:10195000CB113EE1C851100AC9113AE10201020E51
:101960003F6E000E3E6E010E416E406A5A0E426E90
:10197000DBEC09F0C26BC36BC46BC56BC2C0BAF0C1
:10198000D890BA37D890BA37010E0001BA25D96E6F
:10199000DA6A020EDA22DF50C06FC16BC0AF02D02C
:1019A000C06BC16BC0515DEC17F0C22B000EC3239E
:1019B000C423C523400EC25D000EC359000EC45996
:1019C000000EC559DBE35B045A1001E0A8D0C6D76E
:1019D000CA05CB113AE1C851100AC91136E102011A
:1019E000020E3F6E000E3E6E010E416E406A5A0EB0
:1019F000426EDBEC09F0C26BC36BC46BC56BD89055
:101A0000C235BA6F010E0001BA25D96EDA6A020E2C
:101A1000DA22DF50C06FC16BC0AF02D0C06BC16BA8
:101A2000C0515DEC17F0C22B000EC323C423C523A5
:101A3000800EC25D000EC359000EC459000EC55978
:101A4000DEE35B045A106BE1CAD7CA51020ACB111C
:101A500034E1C851080AC91130E10201020E3F6E9B
:101A6000000E3E6E010E416E406A5A0E426EDBEC75
:101A700009F0C26BC36BC46BC56BD890C235BA6F2B
:101A8000000E0001BA25D96EDA6A0201020EDA22CE
:101A9000DF505DEC17F0C22B000EC323C423C52317
:101AA000800EC25D000EC359000EC459000EC55908
:101AB000E4E35B045A1033E1D0D7CA05CB112FE120
:101AC000C851080AC9112BE10201020E3F6E000E37
:101AD0003E6E010E416E406A5A0E426EDBEC09F01A
:101AE000C26BC36BC46BC56B000E0001C225D96EFF
:101AF000DA6A0201020EDA22DF505DEC17F0C22B27
:101B0000000EC323C423C523C25D010EC359000EBA
:101B1000C459000EC559E8E35B045A10D5E0060E1F
:101B20009412060CC2900F0EC16E070EB46EB56A09
:101B30009280938692829384928492869288928AEB
:101B40009480939894928A988050010B0001E86FDA
:101B5000E96B8130E832E832010BEA6FEB6B8030E1
:101B6000010BEC6FED6B8130E832010BEE6FEF6B28
:101B70008030E832010BF06FF16B8030E832E832F0
:101B8000010BF26FF36B8038010BF46FF56B80384B
:101B9000E832010BF66FF76B550E01013A6F690ED3
:101BA000E82EFED73A2FFCD7F7EC17F0BFEC17F072
:101BB0000101010E286E000E276E4EEC06F00009A2
:101BC000F5E1530E0001DB6F450EDC6F530EDD6F48
:101BD000310EDE6F2E0EDF6F570EE06F410EE16F9C
:101BE000560EE26F12EC16F0D890053401013A6FF0
:101BF00006343B6F15EC17F005C00AF006C00BF079
:101C00000D6A070E0C6E93EC17F00AC03CF10BC086
:101C10003DF1CCEC16F005C00AF006C00BF00D6AE1
:101C2000060E0C6E93EC17F00A5001013C253E6F36
:101C30000B503D213F6FA7EC16F005C00AF006C01F
:101C40000BF00D6A050E0C6E93EC17F00A500101B3
:101C50003E25406F0B503F21416FF1EC16F005C05F
:101C60000AF006C00BF00D6A030E0C6E93EC17F031
:101C70000A5001014025426F0B504121436F5DEC3A
:101C800016F0D89005360636D89005360636D89028
:101C900005360636055001014225446F06504321A2
:101CA000456F38EC16F0D89005360636D8900536D4
:101CB0000636055001014425466F06504521476F01
:101CC0003A514625486F3B514721496F39EC17F08F
:101CD0000550010148250001C66F06500101492148
:101CE0000001C76F070E01013A6F7D0EE82EFED787
:101CF0003A2FFCD70001C751C61101E173D7010E7D
:101D0000736F2A0E726F800E746F3CEC14F0000932
:101D100001E04CD7C651300FDE6F8A88DB0E87ECAE
:101D20000CF08A985FD757C048F058C049F03EC0C1
:101D3000D9FF3FC0DAFFDECF40F0DDCF41F04028D1
:101D40004E6E000E41204F6E4F504E1013E020EEAD
:101D50000CF03E50D9263F50DA22DECF40F0DECFE5
:101D600041F0DECF42F0DECF43F04350401041104F
:101D7000421001E1030C4E500F0B01E0B4D020EEF5
:101D80000CF03E50D9263F50DA22DE2A000EDE2229
:101D9000DE22DD22D906D90620EE08F03E50D926F3
:101DA0003F50DA22DECF40F0DECF41F0DECF42F00E
:101DB000DECF43F0435040104110421010E120EEBE
:101DC00004F04850D9264950DA22DECF40F0DDCF6A
:101DD00041F040504E5C41504F58CCE284D04EC050
:101DE00040F04FC041F0040E426ED8904132403274
:101DF000422EFBD720EE02F04850D9264950DA2275
:101E0000DF50436EFF0E4324446E456AFF0E4522A9
:101E100040504414466E41504514476E475046109A
:101E200062E120EE08F03E50D9263F50DA22DECFA4
:101E300022F0DECF23F0DECF24F0DECF25F02FEC32
:101E400008F022C04AF023C04BF024C04CF025C05B
:101E50004DF0020E4A5C000E4B58000E4C58000E1E
:101E60004D5801E2010C20EE06F04850D9264950A9
:101E7000DA22DECF40F0DECF41F0DECF42F0DECF1F
:101E800043F040504A5C41504B5842504C584350EC
:101E90004D5801E36FD720EE08F03E50D9263F5051
:101EA000DA224AC0DEFF4BC0DEFF4CC0DEFF4DC071
:101EB000DEFF4AC011F04BC012F04CC013F04DC011
:101EC00014F09DEC14F020EE0CF03E50D9263F505B
:101ED000DA2211C0DEFF12C0DEFF13C0DEFF14C025
:101EE000DDFFD906D9063EC0D9FF3FC0DAFF4EC09C
:101EF000DEFF4FC0DDFF000C03D00001634B642BFD
:101F00006351F66EE96E070EEA6E6451EA6403D01F
:101F1000EA6EEF5003D0F76E0800F550200AEDE0AE
:101F200000016351F66EE96E070EEA6E6451EA64D1
:101F300003D0EA6EEF5003D0F76E0800F5502F0A79
:101F400003E10001634B642B000120EE04F06051BB
:101F5000D9266151DA22DE6ADE6ADE6ADD6ADD5286
:101F60006351F66EE96E070EEA6E6451EA6403D0BF
:101F7000EA6EEF5003D0F76E0800F5500001656F70
:101F8000210E655D0DE260C01BF061C01CF099EC94
:101F900011F0716F6251D96EDA6A000EDF6E89D06E
:101FA00060C00DF061C00EF0630E0F6E06EC11F014
:101FB0000001716F71517DE160C050F061C051F05E
:101FC00062C052F09DEC12F00001716F715118E087
:101FD0007151030A6EE120EE02F06051D926615181
:101FE000DA22DECF65F0DDCF66F00B0E6525D96E07
:101FF000000E6621DA6EDF505CE1040E716F59D07D
:1020000020EE02F06051D9266151DA22DECF65F070
:10201000DDCF66F00B0E6525D96E000E6621DA6EF7
:10202000DF5047E16251D96EDA6A0B0ED926DA6ABF
:10203000DF50656F65A9E1D76251D96EDA6A1A0E71
:10204000D926DA6ADECF65F0DDCF66F06251D96E4F
:10205000DA6A140ED926DA6ADECF67F0DDCF68F0CF
:102060006751696F68516A6F6B6B6C6B6AC06CF01B
:1020700069C06BF06A6B696B655169116D6F665170
:102080006A116E6F000E6B116F6F000E6C11706F26
:1020900020EE04F06051D9266151DA226DC0DEFFD6
:1020A0006EC0DEFF6FC0DEFF70C0DDFFD906D9064F
:1020B00077D771511200EAEC17F0640E1D6E03D051
:1020C00013EC18F01D061D66FBD71A6A0A6A0B6A24
:1020D0000C6A0D6A400E08EC13F0126E120401E057
:1020E00089D0AA0E0A6E010E0B6E0C6A0D6A480E9C
:1020F00008EC13F0000949E11D6A1D50130FD96E59
:10210000DA6A13EC18F0DF6E1D2A030E1D64F5D792
:10211000150470E11650AA0A6DE12E0E1C6EE00E39
:102120001B6E03D01B06D8A01C061C501B100AE017
:102130000A6A0B6A0C6A400E0D6EE90E08EC13F089
:102140000009F0E11C501B1055E00A6A0B6A0C6A8A
:102150000D6A7A0E08EC13F000094CE11D6A1D505F
:10216000130FD96EDA6A13EC18F0DF6E1D2A030E16
:102170001D64F5D713BC03D0186A040E02D0186A88
:102180000C0E176E17C01AF035D00A6A0B6A0C6A6B
:102190000D6AE90E08EC13F0126E020E125C04E2F6
:1021A000020E1A6EE90E03D0010E1A6E410E196E60
:1021B000610E1C6EA80E1B6E03D01B06D8A01C0659
:1021C0001C501B1009E00A6A0B6A0C6A0D6A195050
:1021D00008EC13F00009F1E11C501B100AE00A6A38
:1021E000020E0B6E0C6A0D6A500E08EC13F000091B
:1021F000D8A41A6A1AC0D0F018EC18F01A5002E0ED
:10220000F00EC6161A5001E1010C000C20EE02F08F
:102210000D50D9260E50DA22DECF17F0DDCF18F0A0
:1022200017C005F018C006F0086A200E076E0A6A8B
:102230000B0E096EA9EC17F0196A166A080E156ED6
:102240000F50D96EDA6ADECF13F0DDCF14F01650DE
:102250001324106EE86A16BEE8681420116E105040
:10226000F66EE96E070EEA6E1150EA6403D0EA6E6C
:10227000EF5003D0F76E0800F5501A6E162A200EA4
:102280001A6439D01A502F0A36E01A502E0A03E089
:102290001550195C0BE31550080A2DE11A502E0A4F
:1022A0002AE1080E196E0B0E156ED1D77F0E1A6437
:1022B00011D01AC010F0800E10261050000F116EB1
:1022C00011C0F6FF080EF76E0800F5CF1AF002D025
:1022D000192ABDD7600E1A6405D07B0E1A6002D091
:1022E000200E1A5E19501724D96E000E1820DA6ECF
:1022F0001AC0DFFFEDD716501324106EE86A16BE21
:10230000E8681420116E0F50D96EDA6A10C0DEFF33
:1023100011C0DDFF20EE0BF01750D9261850DA223D
:10232000200E1A6401D002D0010E01D0000EDF6E23
:10233000000C57C025F058C026F01BC0D9FF1CC0A8
:10234000DAFFDE6ADD6A20EE04F01B50D9261C504D
:10235000DA22DECF27F0DECF28F0DECF29F0DECF85
:102360002AF02704281029102A1017E020EE06F082
:102370002550D9262650DA22DECF1DF0DECF1EF002
:10238000DECF1FF0DECF20F01D50275C1E502858F6
:102390001F50295820502A5801E3010C2A502710B9
:1023A0002810291015E1030E25C0D9FF26C0DAFF39
:1023B000DF620ED020EE0EF02550D9262650DA220C
:1023C000DECF27F0DECF28F0DECF29F0DECF2AF0F7
:1023D00020EE08F01B50D9261C50DA2227C0DEFF61
:1023E00028C0DEFF29C0DEFF2AC0DEFF2A502710EA
:1023F000281029100FE120EE0EF02550D926265086
:10240000DA22DECF21F0DECF22F0DECF23F0DECFE6
:1024100024F012D027C011F028C012F029C013F008
:102420002AC014F09DEC14F011C021F012C022F06B
:1024300013C023F014C024F020EE0CF01B50D9265A
:102440001C50DA2221C0DEFF22C0DEFF23C0DEFFE7
:1024500024C0DEFF000CE8CFA6F057C0A8F058C09B
:10246000A9F0A951A81101E1060C20EE01F0A85134
:10247000D926A951DA22DF6A000EAD6F9A0EAC6F31
:10248000000E616FAA0E606F7A0E626FA6C063F0D5
:10249000646B7CEC0FF0A76FA75102E0A75112000C
:1024A0007A5101E085B9030C8E51726F8F51736FB1
:1024B000746B756B73C075F072C074F0736B726B74
:1024C00094517211766F95517311776F000E7411DC
:1024D000786F000E7511796F20EE1EF0A851D92685
:1024E000A951DA2276C0DEFF77C0DEFF78C0DEFFBA
:1024F00079C0DDFFD906D90620EE1AF0A851D926F9
:10250000A951DA2296C0DEFF97C0DEFF98C0DEFF39
:1025100099C0DEFF20EE16F0A851D926A951DA2283
:10252000DE6ADE6ADE6ADD6A20EE01F0A851D92695
:10253000A951DA22010EDF6E000C50C01BF051C011
:102540001CF099EC11F0566E565002E056501200F5
:1025500052C012F0136A20EE0CF05050D9265150A0
:10256000DA22DECF14F0DECF15F0DECF16F0DECFAC
:1025700017F050C0D9FF51C0DAFFDECF53F0DDCFE6
:1025800054F00F0E5316546A050ED8905336543635
:10259000E82EFBD753C018F054C019F01B6A200E68
:1025A0001A6E73EC13F00009010ED8B4000E566ECB
:1025B0005650CCE15250D96EDA6ADF50556E5566EE
:1025C00003D0030E566EC2D75250D96EDA6A0B0E84
:1025D000D926DA6ADF50536E53B613D020EE02F0DC
:1025E0005050D9265150DA22DECF05F0DDCF06F06B
:1025F000086A0B0E076E52506FEC15F0065005106E
:10260000A5E050C03EF051C03FF093EC0EF09BD7D8
:10261000E8CF11F08B8C8B9C7CEC17F00E6E0E28A3
:1026200001E0FF0C11AE32D0119E115001EC18F0F8
:102630000D5001EC18F00C5001EC18F00B5001ECAF
:1026400018F00A5001EC18F0010E106E1150400AFB
:1026500002E1950E106E1150480A02E1870E106ECD
:10266000105001EC18F011504C0AD8B413EC18F0CB
:102670000A0E106E13EC18F00F6E0FAE02D0102E73
:10268000F9D7010E0F6402D00F501200115001EC67
:1026900018F00D5001EC18F00C5001EC18F00B5034
:1026A00001EC18F00A5001EC18F0010E106E1150F8
:1026B000400A02E1950E106E1150480A02E1870EA1
:1026C000106E105001EC18F011504C0AD8B413ECF5
:1026D00018F00A0E106E13EC18F00F6E0FAED4D770
:1026E000102EF9D7D1D70001D0B708D0090ED89055
:1026F0001436153616361736E82EF9D7010E1E6E2B
:1027000014C00AF015C00BF016C00CF017C00DF085
:10271000510E08EC13F0000947E1750E216E300EE2
:10272000206E13EC18F01F6E1F2806E12006D8A0BB
:10273000210621502010F5E11F50FE0A35E118C096
:102740001CF019C01DF01C1E1D1E1C4A1D2A1A500B
:102750001C5E1B501D5A020E1C24206E020E1D20F2
:10276000216E1950181008E013EC18F01806D8A0C4
:10277000190619501810F8E113EC18F012C0D9FF1F
:1027800013C0DAFFDF6E124A132A1A06D8A01B06FE
:102790001B501A10F1E113EC18F02006D8A0210606
:1027A00021502010F8E11E6A18EC18F01E5012009B
:1027B000E8CF26F026C012F0136A22C014F023C01E
:1027C00015F024C016F025C017F0010E196EFE0E8C
:1027D000186E1B6A020E1A6E73EC13F0000901E00A
:1027E000030C2650D96EDA6AD92ADD50AA0A550E92
:1027F000D8B4DF1801E0020C26C012F0136A22C020
:1028000014F023C015F024C016F025C017F0196A83
:10281000360E186E1B6A020E1A6E73EC13F0000966
:102820000BE12650D96EDA6AD92ADD50410A460EEC
:10283000D8B4DF1801E1000C26C012F0136A22C0E0
:1028400014F023C015F024C016F025C017F0196A43
:10285000520E186E1B6A020E1A6E73EC13F000090A
:102860000AE12650D96EDA6AD92ADD50410A460EAD
:10287000D8B4DF18E0E0010C57C0A9F058C0AAF0A6
:10288000AA51A91102E1060E55D020EE02F07251B4
:10289000D9267351DA229D0EDE6E000EDD6E72C0F7
:1028A00060F073C061F07D0E626F74C063F0080E5B
:1028B000646F7CEC0FF0AB6FAB6738D07D512DE0CF
:1028C00088A929D09151756F9251766F776B786B8B
:1028D00076C078F075C077F0766B756B975175118F
:1028E000796F985176117A6F000E77117B6F000E19
:1028F00078117C6F20EE04F07251D9267351DA22E0
:1029000079C0DEFF7AC0DEFF7BC0DEFF7CC0DDFF6A
:10291000D906D90602D0040EAB6FAB6707D072C0E0
:102920001BF073C01CF099EC11F0AB6FAB51030AB4
:1029300002E1040EAB6FAB51120057C019F058C042
:102940001AF0020E115E000E125A135A145A20EE9B
:1029500006F01950D9261A50DA22FE0EDE24156E22
:10296000FF0EDE20166EFF0EDE20176EFF0EDE203D
:10297000186E1550115C16501258175013581850F5
:10298000145805E3116A126A136A146A120020EEE1
:1029900012F01950D9261A50DA22DECF15F0DECF08
:1029A00016F0DECF17F0DECF18F020EE02F019504F
:1029B000D9261A50DA22DF50056E066A076A086ABD
:1029C00011C009F012C00AF013C00BF014C00CF0D3
:1029D000ECEC15F015500524116E16500620126E01
:1029E00017500720136E18500820146E12000600AE
:1029F0009DA001D001D033D09EA001D001D02FD016
:102A00008BA201D002D0010E01D0000E026E024650
:102A10008B500218FD0B02188B6E59C0CFFFD1C02E
:102A2000CEFF0301000E0001CE25D96EDA6A030144
:102A3000030EDA22DF50DDEC17F00001CE4BCF2B76
:102A4000FF0ECE17000ECF17CD51CF1902E1CC519A
:102A5000CE19D8A401D001D001D09D809E9004C091
:102A6000DAFF03C0D9FF11000D6A0E6A0F6A106AFF
:102A70000C5009100A100B1029E0010E116E06D03F
:102A8000D89009360A360B360C36112A0CAEF8D718
:102A9000D8900D360E360F3610360950055C0A50A8
:102AA00006580B5007580C50085809E30950055EAA
:102AB0000A50065A0B50075A0C50085A0D80D890ED
:102AC0000C320B320A320932112EE2D70DC005F05A
:102AD0000EC006F00FC007F010C008F01200E8CFDB
:102AE0000AF00AC00DF005C00BF006C00CF00E6A2B
:102AF0000F6A0706D8A008060728D8B4082815E0EA
:102B00000D2A0D04D96EDA6ADF50096E0BC0D9FFA9
:102B10000CC0DAFF0B4A0C2ADF50095C0E6E0F6AFC
:102B2000D8A00F060F500E10E4E00EC005F00FC045
:102B300006F0120003EE00F011EE00F0EE6AE55030
:102B4000E150FCE1E250FAE102EE00F011EE00F09B
:102B5000EE6AE550E150FCE1E250FAE101EE00F0EE
:102B60003A0EEE6AE806FDE100EEC8F0200EEE6ACD
:102B7000E806FDE15B6A5A6A596A586A576A000EAC
:102B8000F86E000192EF0DF0056A1B0E066EB70E8F
:102B9000076E000E086A12C009F013C00AF014C0D4
:102BA0000BF015C00CF034EC15F005500008166E53
:102BB000000E0654176E010E0754186E000E0854CE
:102BC000196E2D0E1626000E17221822192217C074
:102BD00059F016C0D1F0000C0D6A0E6A0F6A106A27
:102BE00005A008D009500D260A500E220B500F22C6
:102BF0000C501022D89009360A360B360C36D89075
:102C00000832073206320532085005100610071048
:102C1000E7E10DC005F00EC006F00FC007F010C0D0
:102C200008F012008130E832E832010B086E096AC0
:102C30000001EB51091802E1EA51081816E008C03A
:102C4000EAF009C0EBF0070E076E7D0EE82EFED706
:102C5000072EFCD78250010B0001EA19EB1105E1A8
:102C6000000E066E010E056E010C056A066A120062
:102C70008130E832010B086E096A0001EF51091832
:102C800002E1EE51081816E008C0EEF009C0EFF0BE
:102C9000070E076E7D0EE82EFED7072EFCD782505A
:102CA000010B0001EE19EF1105E1000E066E010E99
:102CB000056E010C056A066A12008038E832010BC5
:102CC000086E096A0001F751091802E1F651081867
:102CD00016E008C0F6F009C0F7F0070E076E7D0E8B
:102CE000E82EFED7072EFCD78250010B0001F61903
:102CF000F71105E1000E066E010E056E010C056A66
:102D0000066A1200E8CF15F01550D96EDA6ADECFE8
:102D100005F0DECF06F0DECF07F0DECF08F011C001
:102D200009F012C00AF013C00BF014C00CF0ECEC68
:102D300015F01550D96EDA6A05C0DEFF06C0DEFF59
:102D400007C0DEFF08C0DDFFD906D90612008030BB
:102D5000E832010B086E096A0001F151091802E11D
:102D6000F051081816E008C0F0F009C0F1F0070EA5
:102D7000076E7D0EE82EFED7072EFCD78250010B82
:102D80000001F019F11105E1000E066E010E056E4D
:102D9000010C056A066A12008030E832E832010B45
:102DA000086E096AF351091802E1F251081816E099
:102DB00008C0F2F009C0F3F0070E076E7D0EE82E92
:102DC000FED7072EFCD78250010B0001F219F31138
:102DD00005E1000E066E010E056E010C056A066A1D
:102DE00012008030010B086E096A0001ED510918CC
:102DF00002E1EC51081816E008C0ECF009C0EDF053
:102E0000070E076E7D0EE82EFED7072EFCD78250E8
:102E1000010B0001EC19ED1105E1000E066E010E2B
:102E2000056E010C056A066A12008038010B086EF7
:102E3000096A0001F551091802E1F451081816E079
:102E400008C0F4F009C0F5F0070E076E7D0EE82EFD
:102E5000FED7072EFCD78250010B0001F419F511A3
:102E600005E1000E066E010E056E010C056A066A8C
:102E700012008050010B086E096A0001E95109181F
:102E800002E1E851081816E008C0E8F009C0E9F0CE
:102E9000070E076E7D0EE82EFED7072EFCD7825058
:102EA000010B0001E819E91105E1000E066E010EA3
:102EB000056E010C056A066A1200E8CF07F0010EE4
:102EC0000001CC25056E000ECD21066E0550CE19F1
:102ED000CF11F5E0000ECC25D96EDA6A030EDA22A6
:102EE00007C0DFFFCC29056E000ECD21066E055010
:102EF000CC6FCD6B9D80120005687F0E066E000EB4
:102F0000076A086A13EC18F0096E09280AE005063A
:102F1000000E065A075A085A0850051006100710E6
:102F2000F1E1095012000E6A0F6A0AA004D00C5099
:102F30000E260D500F22D8900C360D36D8900B323D
:102F40000A320B500A10F1E10EC00AF00FC00BF06C
:102F5000120005C00BF006C00CF008D00BC0D9FF62
:102F60000CC0DAFF07C0DFFF0B4A0C2A0906D8A005
:102F70000A060928D8B40A28D8B41200EFD7056881
:102F80000668070E076E086AFF0E0506062207226E
:102F900008220850051006100710D8B41200F4D704
:102FA0003F0ECB6E040ECA6E1F0EBE6E3C0EBD6E83
:102FB0001F0EBB6E3C0EBA6E3C0CE8CF01F0014018
:102FC000E8423F0BBE6ECF0EBD160138F00B300B42
:102FD000BD121200949C949E938093923F0EC7164C
:102FE000C66AC78CC79EC682C68AC69E1200D0EC2F
:102FF00017F00AEC18F00001CE6BCF6BCC6BCD6BE9
:103000001200E8CF05F0C9509E9605C0C9FF9EB6D4
:103010001200FDD7CD8ECD92CF6ACE6AF28EF28CA1
:103020009E90CD801200C968C7A0FED7C95012007B
:063030008B8C13EF18F079
:020000040030CA
:04000000040E161EB6
:02000600810077
:00000001FF
